:100000000C9453000C947B000C947B000C947B00AC
:100010000C947B000C947B000C947B000C947B0074
:100020000C947B000C947B000C947B000C947B0064
:100030000C947B000C947B000C947B000C947B0054
:100040000C948A010C947B000C94FA010C94D4015A
:100050000C947B000C947B000C947B000C947B0034
:100060000C947B000C947B0000000000250028000D
:100070002B0000000000240027002A0004040404D0
:100080000404040402020202020203030303030342
:10009000010204081020408001020408102001021F
:1000A00004081020950311241FBECFEFD8E0DEBF57
:1000B000CDBF21E0A6E1B1E001C01D92A23CB20794
:1000C000E1F711E0A0E0B1E0E4E9F7E002C005905B
:1000D0000D92A631B107D9F710E0C3E5D0E004C016
:1000E0002197FE010E94C203C235D107C9F70E94C1
:1000F0002C020C94C8030C940000AF92BF92CF92D4
:10010000DF92EF92FF920F931F93CF93DF936C01D7
:100110007B018B01040F151FEB015E01AE18BF08B8
:10012000C017D10759F06991D601ED91FC9101906A
:10013000F081E02DC6010995892B79F7C501DF9182
:10014000CF911F910F91FF90EF90DF90CF90BF90D4
:10015000AF900895FC01538D448D252F30E0842FFE
:1001600090E0821B930B541710F0CF9608950197DF
:100170000895FC01918D828D981761F0A28DAE0FCC
:10018000BF2FB11D5D968C91928D9F5F9F73928F53
:1001900090E008958FEF9FEF0895FC01918D828D7F
:1001A000981731F0828DE80FF11D858D90E008954C
:1001B0008FEF9FEF0895FC01918D228D892F90E0A4
:1001C000805C9F4F821B91098F73992708958CE162
:1001D00091E00E94DB0021E0892B09F420E0822FCE
:1001E000089580E090E0892B29F00E94E7008111BA
:1001F0000C9400000895FC01A48DA80FB92FB11D27
:10020000A35ABF4F2C91848D90E001968F7399274C
:10021000848FA689B7892C93A089B1898C9183702A
:1002200080648C93938D848D981306C00288F38923
:10023000E02D80818F7D80830895EF92FF920F9350
:100240001F93CF93DF93EC0181E0888F9B8D8C8D82
:1002500098131AC0E889F989808185FF15C09FB776
:10026000F894EE89FF896083E889F9898081837039
:10027000806480839FBF81E090E0DF91CF911F91E8
:100280000F91FF90EF900895F62E0B8D10E00F5F09
:100290001F4F0F731127E02E8C8D8E110CC00FB6DF
:1002A00007FCFACFE889F989808185FFF5CFCE0177
:1002B0000E94FB00F1CFEB8DEC0FFD2FF11DE35AF7
:1002C000FF4FF0829FB7F8940B8FEA89FB898081FA
:1002D0008062CFCFCF93DF93EC01888D8823B9F074
:1002E000AA89BB89E889F9898C9185FD03C0808141
:1002F00086FD0DC00FB607FCF7CF8C9185FFF2CFBE
:10030000808185FFEDCFCE010E94FB00E9CFDF9118
:10031000CF9108951F920F920FB60F9211242F9331
:100320003F938F939F93AF93BF938091BE01909122
:10033000BF01A091C001B091C1013091BD0123E086
:10034000230F2D3758F50196A11DB11D2093BD0136
:100350008093BE019093BF01A093C001B093C101EF
:100360008091B9019091BA01A091BB01B091BC01FB
:100370000196A11DB11D8093B9019093BA01A0937C
:10038000BB01B093BC01BF91AF919F918F913F9101
:100390002F910F900FBE0F901F90189526E8230FF6
:1003A0000296A11DB11DD2CF1F920F920FB60F92D0
:1003B00011242F933F934F935F936F937F938F936A
:1003C0009F93AF93BF93EF93FF938CE191E00E94D3
:1003D000FB00FF91EF91BF91AF919F918F917F9122
:1003E0006F915F914F913F912F910F900FBE0F90A2
:1003F0001F9018951F920F920FB60F9211242F93F2
:100400008F939F93EF93FF93E0912C01F0912D0137
:100410008081E0913201F091330182FD1BC0908117
:10042000809135018F5F8F7320913601821741F0E3
:10043000E0913501F0E0E45EFE4F958F8093350149
:10044000FF91EF919F918F912F910F900FBE0F9081
:100450001F9018958081F4CFCF93DF93CDB7DEB78F
:10046000C456D1090FB6F894DEBF0FBECDBF789445
:1004700084B5826084BD84B5816084BD85B58260A9
:1004800085BD85B5816085BD80916E00816080935A
:100490006E001092810080918100826080938100C3
:1004A00080918100816080938100809180008160D3
:1004B000809380008091B10084608093B10080912E
:1004C000B00081608093B00080917A008460809356
:1004D0007A0080917A00826080937A0080917A001D
:1004E000816080937A0080917A00806880937A009E
:1004F0001092C100E0912C01F0912D0182E08083E7
:10050000E0912801F09129011082E0912A01F091F7
:100510002B0180E1808310923401E0913001F09151
:10052000310186E08083E0912E01F0912F018081DE
:1005300080618083E0912E01F0912F01808188609D
:100540008083E0912E01F0912F018081806880836B
:10055000E0912E01F0912F0180818F7D8083EBE966
:10056000F0E02491E7E8F0E08491882399F090E0AE
:10057000880F991FFC01EE58FF4FA591B491FC0123
:10058000E859FF4F859194918FB7F894EC91E22B45
:10059000EC938FBF00E010E08CE191E00E94DB0063
:1005A000181619060CF071C0B6E1EB2EB1E0FB2E67
:1005B0002FB7F8948091BE019091BF01A091C00126
:1005C000B091C1012FBF8093240190932501A09386
:1005D0002601B09327018CE191E00E94B90097FFBA
:1005E0009AC02FB7F8948091BE019091BF01A0915D
:1005F000C001B091C1012FBF40912401509125014C
:100600006091260170912701841B950BA60BB70BF7
:1006100040912001509121016091220170912301AC
:1006200084179507A607B707B0F29091160191308D
:1006300061F5809117018330A1F1863031F5E091A9
:100640001801F0911901FE27EF27FE27EE0FFF1F7B
:10065000E050FF4F80911A0190911B019827892744
:1006600098279183808386E0E6E1F1E0DE01119630
:1006700001900D928A95E1F746E050E0BE016F5F70
:100680007F4F8CE191E00E947D000115110509F476
:1006900083CF0E94E700882309F47ECF0E940000E8
:1006A0007BCF609118017091190176276727762713
:1006B00040911A0150911B015427452754279983D3
:1006C0008A83842F880F8B8320E0822F90E0841709
:1006D0009507E0F4FC01E60FF71FEE0FFF1FE05057
:1006E000FF4F3081A181880F991FE4E0F0E0EC0F0B
:1006F000FD1FE80FF91FA083E5E0F0E0EC0FFD1F00
:100700008E0F9F1FFC0130832F5FDFCF440F551FDB
:100710004D5F5F4FB3CFF70181937F01FCE1EF168F
:10072000F1E0FF0609F044CF80CFECE1F1E0138265
:10073000128288EE93E0A0E0B0E084839583A683E4
:10074000B78388E091E09183808385EC90E0958782
:10075000848784EC90E09787868780EC90E0918B8B
:10076000808B81EC90E0938B828B82EC90E0958B78
:10077000848B86EC90E0978B868B118E128E138E75
:10078000148E0895EE0FFF1F0590F491E02D09944B
:04079000F894FFCF0B
:100794004000FF01000000001D017D00AA006A0165
:0607A400DB00B900CD00EE
:00000001FF
